:100000001EC0E2C537C028C635C034C033C032C0B8
:1000100031C0E9C72FC0C1C32DC0FAC39FC72AC0D2
:1000200029C0D4C627C0B8C5B9C5BAC5BBC5BCC5EB
:10003000BDC5BEC5BFC5C0C5C1C5C2C5C3C51124E8
:100040001FBECFE5D4E0DEBFCDBF10E0A0E6B0E03C
:10005000E4E7F0E102C005900D92A436B107D9F7AC
:1000600010E0A4E6B0E001C01D92AB3FB107E1F79C
:10007000A3D2FFC7C5CFEF92FF920F931F93CF93E9
:10008000DF93CDB7DEB728970FB6F894DEBF0FBE6B
:10009000CDBF40E050E06AE870E0A8E7B0E007EAD2
:1000A00010E0F801819191918F012D913D91821B7A
:1000B000930BFB01918380833296BF014F5F5F4FAB
:1000C0004330510571F78091EF009091F00020913D
:1000D000B9003091BA00821B930B9093A1008093DA
:1000E000A0008091F1009091F2002091BB0030912E
:1000F000BC00821B930B90939D0080939C00809189
:10010000ED009091EE002091B7003091B800821B75
:10011000930B90939F0080939E008091B5009091E7
:10012000B6002091EB003091EC00821B930B909372
:100130009B0080939A00809160008823A9F1209110
:100140009C0030919D0080918E0090918F00880FCF
:10015000991F280F391F30939D0020939C002091F8
:100160009E0030919F0080918C0090918D00880FAF
:10017000991F281B390B30939F0020939E002091DC
:100180009A0030919B0040918A0050918B00CA01E7
:10019000880F991F880F991F840F951F281B390BF3
:1001A00030939B0020939A008091A0009091A10031
:1001B00097FF04C01092A1001092A0008091A000AF
:1001C0009091A1008F5E924034F08EEE92E0909379
:1001D000A1008093A00080919C0090919D0089587F
:1001E0009E4F34F489E89EEF90939D0080939C008D
:1001F00080919C0090919D008857914034F087E752
:1002000091E090939D0080939C0080919E0090913E
:100210009F0089589E4F34F489E89EEF90939F0089
:1002200080939E0080919E0090919F0088579140FE
:1002300034F087E791E090939F0080939E00809137
:100240009A0090919B0089589E4F34F489E89EEF64
:1002500090939B0080939A0080919A0090919B00CC
:100260008857914034F087E791E090939B0080930A
:100270009A008091A0009091A10063E070E0D2D636
:100280009B018091A0009091A10063E070E0CAD62C
:10029000FB018091A0009091A10063E070E0C2D6C4
:1002A0008B018091A0009091A10063E070E0BAD62C
:1002B0007B0180919C0090919D00959587959595E7
:1002C0008795080F191F80919C0090919D0095952E
:1002D000879595958795E81AF90A80919E009091E7
:1002E0009F009595879595958795281B390B80914B
:1002F0009E0090919F009595879595958795E80F1D
:10030000F91F80919A0090919B0066E070E08AD678
:10031000261B370B3A83298380919A0090919B008A
:1003200066E070E07FD6E61BF70BFC83EB838091E1
:100330009A0090919B0066E070E074D6060F171F3C
:100340001E830D8380919A0090919B0066E070E07F
:1003500069D6E60EF71EF886EF8240E050E0DE0137
:100360001196EAE8F0E0208D8D919C911197820F13
:10037000911D959587958D939D934F5F5F4F319616
:100380004430510581F720E030E0DE01119646E966
:10039000EAE8F0E08D919C9111978739910514F06E
:1003A000408F05C097FF02C0108E01C0808F2F5F65
:1003B0003F4F319612962430310561F78091A000AD
:1003C0009091A100C29754F480E090E0EAE8F0E058
:1003D000108E0196319684309105D1F728960FB68C
:1003E000F894DEBF0FBECDBFDF91CF911F910F916B
:1003F000FF90EF9008958AEF37D2E3D48823C9F5B0
:10040000809161008F5F8093610081508230A9F0FC
:10041000833009F1813069F5809171008E7F80937E
:1004200071008BE38093B10080E28093B20062E0C0
:1004300081EB90E042D58FEF1BC0809171008E7FE1
:10044000809371008BE38093B10061E081EB90E0D9
:1004500034D58EEF0DC0809171008E7F8093710036
:1004600061E081EB90E05DD58DEFFED18091B10030
:10047000FBD180916100843008F4BFCF81E080938C
:10048000610008950F931F93CF93DF9300EA1FE05D
:10049000C8010197F1F755D3C8010197F1F751D37E
:1004A000C8010197F1F74DD3C8010197F1F749D37E
:1004B000C8010197F1F745D384D4882309F077C0A8
:1004C000809161008F5F809361008150853009F4D5
:1004D0003FC0863020F4813008F469C007C0863000
:1004E00009F441C0873009F062C042C080917100B8
:1004F000E091640080FD0CC0FF27E355FF4F808131
:100500008F5F80838081882339F48FEF808304C0DC
:10051000FF27E355FF4F1082809171008E7F8093FB
:10052000710080916400833019F41092640003C05C
:100530008F5F80936400E0916400FF27CF01880FF4
:10054000991F8E5A8093B100E657FF4F808D04C0EB
:100550008BE38093B10088E28093B20062E081EB8C
:1005600090E0ABD424C08BE38093B10066E0F7CF7A
:1005700066E081EB90E0D5D440E050E0E1EBF0E0C4
:10058000AAE8B0E02081332781819927982F882716
:10059000282B392BED013F832E834F5F5F4F12963F
:1005A00032964330510571F781E080936100DF910D
:1005B000CF911F910F910895C3E3D4E0DEBFCDBF6B
:1005C00080E281BB84E082BB43E0A0E9B1E0959A80
:1005D00024EF31E0CD010197F1F721503040D1F700
:1005E000959828EE33E0E0E9F1E0CF010197F1F7CB
:1005F00021503040D1F7415051F73FD111D3FFD4B2
:10060000D9D37894F8DE80E090E0EDEAF0E0119242
:10061000019684309105D9F7FE013D96CE018D9665
:100620001192119211921192E817F907C9F7FE0180
:100630003196CE010D961192119211921192E817F6
:10064000F907C9F781E080936000959AFF2402C002
:10065000A0E4FA2E76D282B390E2892782BB809101
:1006600062008A3009F48BC0833609F48AC0813075
:1006700089F780916A00882369F310926A0060E02C
:1006800070E0FE013D960BEE10E0D8012D913D91FA
:100690008D014427552780819181A281B381820FEA
:1006A000931FA41FB51F81939193A193B1936F5F83
:1006B0007F4F6830710549F760E070E0FE013196C8
:1006C00007EA10E0D8012D913D918D01442755276F
:1006D00080819181A281B381820F931FA41FB51FD6
:1006E00081939193A193B1936F5F7F4F63307105B5
:1006F00049F7F394B0E4FB1609F0ACCF8AE080939D
:10070000620020E030E0AE01435F5F4F65EB70E0D8
:10071000FA0181919191A191B191AF01F6E0B69565
:10072000A79597958795FA95D1F7FB0191838083DB
:100730003296BF012F5F3F4F2830310549F720E047
:1007400030E0AE014F5F5F4F68E770E0FA018191E2
:100750009191A191B191AF01E6E0B695A7959795DA
:100760008795EA95D1F7FB01918380833296BF018B
:100770002F5F3F4F2330310509F46ACFE7CF7BDC91
:100780000AC080E090E0EAE8F0E0108E0196319631
:1007900084309105D1F776DE5DCF1F920F920FB6B0
:1007A0000F9211248F939F93EF93FF939CB19A3AEA
:1007B00069F4809168008F5F809368008091680081
:1007C000843030F081E0809367000CC010926800A4
:1007D00080916700813099F4809169008A3029F412
:1007E00010926700109269000AC080916900E82F9A
:1007F000FF27EB53FF4F90838F5F80936900FF913A
:10080000EF919F918F910F900FBE0F901F901895B1
:100810001F920F920FB60F9211248F939F93EF9315
:10082000FF939091660080916500981759F0809130
:100830006600E82FFF27E153FF4F90819CB98F5F3F
:1008400080936600FF91EF919F918F910F900FBE63
:100850000F901F9018958093650081E0809366004B
:100860008091CF008CB908955D9BFECF8CB908951F
:100870005F9BFECF8CB1992708958AB1886D8AB9A4
:1008800080B5866880BD83E389B910BC089580E097
:10089000EBDFF89488E081BD28EE33E0E0E9F1E099
:1008A000CF010197F1F721503040D1F7089585E548
:1008B0008093CF0089E98093D0008EEE8093D100A1
:1008C00083E08093650081E0809366008091CF0093
:1008D0008CB90895CF93DF9320E030E0E0EDF0E0B5
:1008E000EF012197A5EBB0E08D919C911197892F95
:1008F000992788838D919D9180832F5F3F4F22960A
:1009000032962430310581F78CEC8093D70089E052
:100910008093650081E0809366008091CF008CB960
:10092000DF91CF910895CF93DF9320E030E0E0EDA9
:10093000F0E0EF012197ABEEB0E08D919C91119723
:10094000892F992788838D919D9180832F5F3F4FB9
:10095000229632962430310581F78AEB8093D700B6
:1009600089E08093650081E0809366008091CF00EC
:100970008CB9DF91CF910895CF93DF9320E030E0E1
:10098000A0EDB0E0ED012197EAE8F0E080899189DF
:1009900084529A4F892F992788838089918984521C
:1009A0008C932F5F3F4F329622961296243031055A
:1009B00069F78AEB8093D70089E08093650081E036
:1009C000809366008091CF008CB9DF91CF9108951C
:1009D00020E030E0AFECB0E0EDEAF0E081918D9303
:1009E0002F5F3F4F24303105C9F78AEB8093D30046
:1009F00085E08093650081E0809366008091CF0060
:100A00008CB90895809162008093CF008EEE809320
:100A1000D00082E08093650081E080936600809141
:100A2000CF008CB9089520E030E0AFECB0E0EAE808
:100A3000F0E0808D8D932F5F3F4F3196243031054C
:100A4000C1F786E68093D30085E08093650081E05E
:100A5000809366008091CF008CB90895CF93DF9387
:100A600020E030E0E0EDF0E0EF012197A7EAB0E010
:100A70008D919C911197892F992788838D919D91B4
:100A800080832F5F3F4F229632962330310581F7C6
:100A90008AEA8093D50087E08093650081E08093A7
:100AA00066008091CF008CB9DF91CF910895CF93EC
:100AB000DF9320E030E0E0EDF0E0EF012197AAE8DD
:100AC000B0E08D919C91119780509E4F892F99276E
:100AD00088838D919D9180832F5F3F4F2296329620
:100AE0002330310571F78BEB8093D50087E080933D
:100AF000650081E0809366008091CF008CB9DF9122
:100B0000CF91089583E68093620087E78093CF00BA
:100B100081E080936500809366008091CF008CB95E
:100B200008958091C8008093600084E48093CF0092
:100B300081E080936500809366008091CF008CB93E
:100B40000895809169008330F0F19091690080915F
:100B5000C6009817C1F51092690090E020E030E0DF
:100B600005C0FF27EB53FF4F8081980FE22F809144
:100B7000C6002F5F3F4FE817A0F3992319F010929A
:100B8000670008958091C500E82FFF27EC30F1053C
:100B9000D0F4ED5EFF4F09947ADE089588DE089563
:100BA000C2DE089515DF089595DE08952BDF0895C0
:100BB0003ADF0895E1DE089551DF089578DF089562
:100BC000A1DF0895AEDF08951F920F920FB60F9226
:100BD00011248F9385B7882311F015BE0BC088E4CC
:100BE00083BD14BC80B7826080BF8AE085BD8BB7AF
:100BF0008F7B8BBF8F910F900FBE0F901F9018951A
:100C000090E020E401C090E0822F8A95F1F7829B6A
:100C1000FACF9F5F983CC0F38BB780648BBF089579
:100C200015BE89B7806889BF80E090E0E9EDF0E00B
:100C3000118210823296019689309105C9F780E0C1
:100C400090E0EBEEF0E0118210823296019688304F
:100C50009105C9F7D5DF08951F920F920FB60F9235
:100C600011242F933F934F935F936F937F938F93B1
:100C70009F93AF93BF93EF93FF9380E383BD829BDA
:100C800016C0E0916F00FF27EE0FFF1FE752FF4FE6
:100C9000208131814091700081E090E002C0880F96
:100CA000991F4A95E2F7282B392B318320838091B5
:100CB00070008F5F8093700080917000803109F028
:100CC00068C01092700015BC80916F00883009F0E8
:100CD00042C010926F002091E9003091EA008091AB
:100CE0006C0090916D0028173907B9F420E030E0CE
:100CF000ABEEB0E0E9EDF0E08191919111969C931B
:100D00008E9312962F5F3F4F29303105A9F781E06E
:100D100080936A0010926B000EC080916B008F5F11
:100D200080936B0080916B00853029F410926B00EA
:100D3000789466DFF89480E090E0E9EDF0E01182CD
:100D400010823296019689309105C9F710926D0094
:100D500010926C0017C020916C0030916D00409192
:100D60006F00E42FFF27EE0FFF1FE752FF4F808138
:100D70009181280F391F30936D0020936C004F5FD5
:100D800040936F00829902C083E085BF8BB7806477
:100D90008BBFFF91EF91BF91AF919F918F917F9109
:100DA0006F915F914F913F912F910F900FBE0F90D8
:100DB0001F90189588E480B98FEF83B984E086BFCF
:100DC000089586B799278170907008951F920F92A9
:100DD0000FB60F9211242F933F938F939F93EF930E
:100DE000FF9381B18832C9F0893240F4803199F0A3
:100DF000883199F0883009F049C00DC0803441F144
:100E0000813420F4883309F041C03EC08035A9F018
:100E10008835E1F52BC0109272009091720080919C
:100E20007300981750F5E92FFF27EC58FF4F80818A
:100E300083B99F5F9093720017C08091720093B145
:100E4000E82FFF27EC58FF4F90838F5F809372004D
:100E500020917200332780917300992701972817FA
:100E6000390714F485EC16C085E814C083B1E0910D
:100E70007200FF27EC58FF4F8083809171008160E2
:100E80008093710084E906C085EA04C081B1809333
:100E9000630084E086BFFF91EF919F918F913F9116
:100EA0002F910F900FBE0F901F90189506B600FC63
:100EB000FDCF8091630099270895CF93DF93EC01D4
:100EC00006B600FCFDCF60937300888180937400A8
:100ED000888180FD11C020E030E008C0FF27DE01DE
:100EE000AE0FBF1F8C91EC58FF4F8083E22FEF5F56
:100EF0002F5F3F4F261790F31092710088EF809379
:100F0000630085EA86BFDF91CF91089506B600FCA5
:100F1000FDCF1092710088EF8093630085EA86BF51
:100F20000895AC0106B600FCFDCF8091710080FFF2
:100F300010C020E030E00AC0FF27DA01AE0FBF1F6B
:100F4000EC58FF4F80818C932F5F3F4FE22F261785
:100F500098F3809171008170992708951F920F92E4
:100F60000FB60F9211242F933F934F935F938F935C
:100F70009F93AF93BF93EF93FF93A7B1BB27E7B1C5
:100F8000FF27EE0FFF1FE955FF4F2081318144B14C
:100F900055B1C901880F991F820F931F840F951FA8
:100FA0009695879596958795AA0FBB1FA955BF4F14
:100FB00011969C938E9387B1823028F487B18F5F0E
:100FC00087B9369A01C017B8FF91EF91BF91AF91E1
:100FD0009F918F915F914F913F912F910F900FBEF5
:100FE0000F901F9018951F920F920FB60F92112419
:100FF00017B8369A0F900FBE0F901F90189580E08B
:1010000090E0E7EAF0E01182108232960196833098
:101010009105C9F789B7816089BF85E083BF8FE8F3
:1010200086B9089597FB092E07260AD077FD04D0CC
:101030000CD006D000201AF4709561957F4F08956A
:10104000F6F7909581959F4F0895AA1BBB1B51E120
:1010500007C0AA1FBB1FA617B70710F0A61BB70B28
:10106000881F991F5A95A9F780959095BC01CD01CD
:041070000895FFCF11
:04107400010101F87D
:00000001FF
