:1018000012C02CC02BC02AC029C028C027C026C0A7
:1018100025C024C023C022C021C020C01FC01EC0BC
:101820001DC01CC01BC011241FBECFE5D4E0DEBF0D
:10183000CDBF10E0A0E6B0E0ECEEFCE102C0059008
:101840000D92A236B107D9F711E0A2E6B0E001C0CF
:101850001D92AB36B107E1F7D5D046C2D1CFCF92BA
:10186000DF92EF92FF921F93CF93DF93FC01142F2F
:10187000EB0160E026C0899169017A01C80ED11C94
:10188000E11CF11CA70196017AE0220F331F441FCF
:10189000551F7A95D1F72C0D3D1D4E1D5F1DDA01A8
:1018A000C90176E0B695A795979587957A95D1F772
:1018B00082279327A427B52780839183A283B383AC
:1018C0006F5F20813181428153816117A0F2DA017B
:1018D000C90113E0880F991FAA1FBB1F1A95D1F7E2
:1018E000820F931FA41FB51F9C01AD017BE056958D
:1018F0004795379527957A95D1F7282739274A278D
:101900005B27DA01C9016FE0880F991FAA1FBB1F6F
:101910006A95D1F7820F931FA41FB51F808391830F
:10192000A283B383DF91CF911F91FF90EF90DF905F
:10193000CF9008951F93CF93DF93DA01AB0183E03B
:10194000FB0180935700E89507B600FCFDCFFA0134
:1019500011E0BA01605C7F4F8C9111963C91119718
:1019600020E0E901C80FD11D12960E011093570017
:10197000E89511243296E617F70771F785E0FA012A
:1019800080935700E89507B600FCFDCFDF91CF911B
:101990001F9108955D9BFECF8CB9089581E08093DF
:1019A000600080E090E0A0E0B0E00EC00196A11DD4
:1019B000B11D813A26E8920721E0A20720E0B20794
:1019C00019F41092600002C05F9BF0CF8CB10895B3
:1019D00090E040E951E013C0959A28EE33E0FA0117
:1019E0003197F1F721503040D1F7959828EE33E048
:1019F000FA013197F1F721503040D1F79F5F9817E6
:101A000058F30895CF92DF92EF92FF920F931F93B6
:101A1000DF93CF9300D000D0CDB7DEB71092650032
:101A200010926600109267001092680010BC83E369
:101A300089B988E18AB98D9A81E0CADF5D9BFECFC2
:101A400085E08CB9EE24FF24870113C00894E11CC3
:101A5000F11C011D111D21EAE21626E8F20621E023
:101A6000020720E0120728F0E0916200F091630085
:101A700009955F9BEBCF8CB1863029F0E091620035
:101A8000F09163000995A4E5CA2EF7E0DF2EFF244C
:101A9000F394E1E1EE2E8E010F5F1F4F8091650000
:101AA00090916600A0916700B09168000097A10531
:101AB000B10521F05D9BFECFDCB803C05D9BFECF7E
:101AC000CCB880E090E0A0E0B0E00DC00196A11D90
:101AD000B11D813A56E8950751E0A50750E0B507DA
:101AE00011F420E003C05F9BF1CF21E08CB18A3379
:101AF00039F080E090E0A0E0B0E02223A1F7A7C099
:101B0000F092600080E090E0A0E0B0E00EC00196AE
:101B1000A11DB11D813A26E8920721E0A20720E02D
:101B2000B20719F41092600002C05F9BF0CF9CB125
:101B30009093640080916000882309F4BBCF9335B3
:101B400041F4E0925700E895E0916200F091630063
:101B50000995F092600080E090E0A0E0B0E00EC057
:101B60000196A11DB11D813A56E8950751E0A507E0
:101B700050E0B50719F41092600002C05F9BF0CFEF
:101B80008CB18093690180916000882309F492CF21
:101B9000F092600080E090E0A0E0B0E00EC001961E
:101BA000A11DB11D813A26E8920721E0A20720E09D
:101BB000B20719F41092600002C05F9BF0CF8CB1A5
:101BC00080936A0180916000882309F473CFE5E671
:101BD000F0E080E090E0A0E0B0E00DC00196A11D33
:101BE000B11D813A56E8950751E0A50750E0B507C9
:101BF00011F490E003C05F9BF1CF91E08CB1808342
:101C0000992329F1319680E0E936F80711F790938E
:101C1000600040916400642F70E020E030E01CC060
:101C20000196A11DB11D813A56E8950751E0A5071F
:101C300050E0B50711F490E003C05F9BF1CF91E055
:101C40008CB1F901E759FF4F8083992319F4109261
:101C5000600030CF2F5F3F4F2617370728F480E012
:101C600090E0A0E0B0E0E9CF9093600019821A8282
:101C70001B821C82C80169E670E0F1DDC80164E6E0
:101C800070E041E0ECDDC80169E671E041E0E7DDCC
:101C9000C8016AE671E041E0E2DD80916500909163
:101CA0006600A0916700B091680029813A814B815C
:101CB0005C81821B930BA40BB50B80936500909302
:101CC0006600A0936700B09368000097A105B10576
:101CD00009F0E4CE6091690170916A0180E090E0C2
:0C1CE00049E650E027DEDACEF894FFCF92
:021CEC000100F5
:0400000300001800E1
:00000001FF
